{
  "abi": [
    {
      "inputs": [
        {
          "internalType": "address",
          "name": "fly",
          "type": "address"
        },
        {
          "internalType": "address",
          "name": "tadpole",
          "type": "address"
        },
        {
          "internalType": "address",
          "name": "fatTadpole",
          "type": "address"
        }
      ],
      "stateMutability": "nonpayable",
      "type": "constructor"
    },
    {
      "inputs": [],
      "name": "AlreadyStaked",
      "type": "error"
    },
    {
      "inputs": [],
      "name": "AlreadyStarted",
      "type": "error"
    },
    {
      "inputs": [],
      "name": "NotStarted",
      "type": "error"
    },
    {
      "inputs": [],
      "name": "NothingToClaim",
      "type": "error"
    },
    {
      "inputs": [],
      "name": "Unauthorized",
      "type": "error"
    },
    {
      "inputs": [],
      "name": "WrongTokenID",
      "type": "error"
    },
    {
      "anonymous": false,
      "inputs": [
        {
          "indexed": false,
          "internalType": "uint256",
          "name": "cycle",
          "type": "uint256"
        },
        {
          "components": [
            {
              "internalType": "address",
              "name": "adr",
              "type": "address"
            },
            {
              "internalType": "uint256",
              "name": "points",
              "type": "uint256"
            }
          ],
          "indexed": false,
          "internalType": "struct FattestTadpole.Winner",
          "name": "winner",
          "type": "tuple"
        }
      ],
      "name": "CycleFinished",
      "type": "event"
    },
    {
      "anonymous": false,
      "inputs": [
        {
          "indexed": false,
          "internalType": "uint256",
          "name": "tokenId",
          "type": "uint256"
        }
      ],
      "name": "Entered",
      "type": "event"
    },
    {
      "anonymous": false,
      "inputs": [
        {
          "indexed": false,
          "internalType": "uint256",
          "name": "tokenId",
          "type": "uint256"
        }
      ],
      "name": "Exited",
      "type": "event"
    },
    {
      "anonymous": false,
      "inputs": [
        {
          "indexed": false,
          "internalType": "uint256",
          "name": "amount",
          "type": "uint256"
        }
      ],
      "name": "FlyAdded",
      "type": "event"
    },
    {
      "anonymous": false,
      "inputs": [
        {
          "indexed": true,
          "internalType": "address",
          "name": "owner",
          "type": "address"
        }
      ],
      "name": "UpdatedOwner",
      "type": "event"
    },
    {
      "anonymous": false,
      "inputs": [
        {
          "components": [
            {
              "internalType": "address",
              "name": "adr",
              "type": "address"
            },
            {
              "internalType": "uint256",
              "name": "points",
              "type": "uint256"
            }
          ],
          "indexed": false,
          "internalType": "struct FattestTadpole.Winner",
          "name": "winner",
          "type": "tuple"
        }
      ],
      "name": "WinnerChanged",
      "type": "event"
    },
    {
      "inputs": [],
      "name": "FAT_TADPOLE",
      "outputs": [
        {
          "internalType": "address",
          "name": "",
          "type": "address"
        }
      ],
      "stateMutability": "view",
      "type": "function"
    },
    {
      "inputs": [],
      "name": "FLY",
      "outputs": [
        {
          "internalType": "address",
          "name": "",
          "type": "address"
        }
      ],
      "stateMutability": "view",
      "type": "function"
    },
    {
      "inputs": [],
      "name": "TADPOLE",
      "outputs": [
        {
          "internalType": "address",
          "name": "",
          "type": "address"
        }
      ],
      "stateMutability": "view",
      "type": "function"
    },
    {
      "inputs": [
        {
          "internalType": "uint256",
          "name": "flies",
          "type": "uint256"
        }
      ],
      "name": "addFlies",
      "outputs": [],
      "stateMutability": "nonpayable",
      "type": "function"
    },
    {
      "inputs": [],
      "name": "canClaim",
      "outputs": [
        {
          "internalType": "bool",
          "name": "",
          "type": "bool"
        }
      ],
      "stateMutability": "view",
      "type": "function"
    },
    {
      "inputs": [],
      "name": "claim",
      "outputs": [],
      "stateMutability": "nonpayable",
      "type": "function"
    },
    {
      "inputs": [],
      "name": "currentWinner",
      "outputs": [
        {
          "internalType": "address",
          "name": "adr",
          "type": "address"
        },
        {
          "internalType": "uint256",
          "name": "points",
          "type": "uint256"
        }
      ],
      "stateMutability": "view",
      "type": "function"
    },
    {
      "inputs": [],
      "name": "cycle",
      "outputs": [
        {
          "internalType": "uint256",
          "name": "",
          "type": "uint256"
        }
      ],
      "stateMutability": "view",
      "type": "function"
    },
    {
      "inputs": [
        {
          "internalType": "uint256",
          "name": "",
          "type": "uint256"
        },
        {
          "internalType": "address",
          "name": "",
          "type": "address"
        }
      ],
      "name": "cyclePoints",
      "outputs": [
        {
          "internalType": "uint256",
          "name": "",
          "type": "uint256"
        }
      ],
      "stateMutability": "view",
      "type": "function"
    },
    {
      "inputs": [
        {
          "internalType": "uint256",
          "name": "tokenId",
          "type": "uint256"
        }
      ],
      "name": "enter",
      "outputs": [],
      "stateMutability": "nonpayable",
      "type": "function"
    },
    {
      "inputs": [],
      "name": "exit",
      "outputs": [],
      "stateMutability": "nonpayable",
      "type": "function"
    },
    {
      "inputs": [],
      "name": "getUserPoints",
      "outputs": [
        {
          "internalType": "uint256",
          "name": "",
          "type": "uint256"
        }
      ],
      "stateMutability": "view",
      "type": "function"
    },
    {
      "inputs": [
        {
          "internalType": "address",
          "name": "",
          "type": "address"
        }
      ],
      "name": "historicalWinners",
      "outputs": [
        {
          "internalType": "uint256",
          "name": "",
          "type": "uint256"
        }
      ],
      "stateMutability": "view",
      "type": "function"
    },
    {
      "inputs": [],
      "name": "isStarted",
      "outputs": [
        {
          "internalType": "bool",
          "name": "",
          "type": "bool"
        }
      ],
      "stateMutability": "view",
      "type": "function"
    },
    {
      "inputs": [],
      "name": "owner",
      "outputs": [
        {
          "internalType": "address",
          "name": "",
          "type": "address"
        }
      ],
      "stateMutability": "view",
      "type": "function"
    },
    {
      "inputs": [],
      "name": "period",
      "outputs": [
        {
          "internalType": "uint256",
          "name": "",
          "type": "uint256"
        }
      ],
      "stateMutability": "view",
      "type": "function"
    },
    {
      "inputs": [
        {
          "internalType": "address",
          "name": "_owner",
          "type": "address"
        }
      ],
      "name": "setOwner",
      "outputs": [],
      "stateMutability": "nonpayable",
      "type": "function"
    },
    {
      "inputs": [],
      "name": "start",
      "outputs": [],
      "stateMutability": "nonpayable",
      "type": "function"
    },
    {
      "inputs": [],
      "name": "startTs",
      "outputs": [
        {
          "internalType": "uint256",
          "name": "",
          "type": "uint256"
        }
      ],
      "stateMutability": "view",
      "type": "function"
    },
    {
      "inputs": [
        {
          "internalType": "address",
          "name": "",
          "type": "address"
        }
      ],
      "name": "tadpoleOwners",
      "outputs": [
        {
          "internalType": "uint256",
          "name": "tokenId",
          "type": "uint256"
        },
        {
          "internalType": "bool",
          "name": "staked",
          "type": "bool"
        }
      ],
      "stateMutability": "view",
      "type": "function"
    }
  ],
  "bytecode": {
    "object": "0x61010060405261012c60e052600080805560015534801561001f57600080fd5b506040516111c63803806111c683398101604081905261003e91610089565b600280546001600160a01b031916331790556001600160a01b0392831660805290821660a0521660c0526100cc565b80516001600160a01b038116811461008457600080fd5b919050565b60008060006060848603121561009e57600080fd5b6100a78461006d565b92506100b56020850161006d565b91506100c36040850161006d565b90509250925092565b60805160a05160c05160e0516110826101446000396000818161020f015281816103f50152818161041d015281816109750152610b7f01526000818161039f01526108b20152600081816101ba015281816105ad01528181610ac80152610d8a0152600081816103c6015261052001526110826000f3fe608060405234801561001057600080fd5b506004361061016c5760003560e01c806398abaa8d116100cd578063c4baff5711610081578063e1a61a0c11610066578063e1a61a0c146103c1578063e9fad8ee146103e8578063ef78d4fd146103f057600080fd5b8063c4baff5714610378578063dcc31fc81461039a57600080fd5b8063aabe2fe3116100b2578063aabe2fe3146102f5578063afda75b914610345578063be9a65551461037057600080fd5b806398abaa8d146102c2578063a59f3e0c146102e257600080fd5b8063544736e6116101245780636dc7a627116101095780636dc7a6271461024c57806372e9dd83146102635780638da5cb5b146102a257600080fd5b8063544736e6146102095780636190c9d51461024357600080fd5b806325677e4f1161015557806325677e4f1461019957806334fd157b146101b55780634e71d92d1461020157600080fd5b8063043ad60d1461017157806313af403514610186575b600080fd5b61018461017f366004610e67565b610417565b005b610184610194366004610ea9565b610764565b6101a260005481565b6040519081526020015b60405180910390f35b6101dc7f000000000000000000000000000000000000000000000000000000000000000081565b60405173ffffffffffffffffffffffffffffffffffffffff90911681526020016101ac565b610184610824565b600054427f0000000000000000000000000000000000000000000000000000000000000000909101115b60405190151581526020016101ac565b6101a260015481565b336000908152600760205260409020541515610233565b61028d610271366004610ea9565b6005602052600090815260409020805460019091015460ff1682565b604080519283529015156020830152016101ac565b6002546101dc9073ffffffffffffffffffffffffffffffffffffffff1681565b6101a26102d0366004610ea9565b60076020526000908152604090205481565b6101846102f0366004610e67565b61096f565b6003546004546103199173ffffffffffffffffffffffffffffffffffffffff169082565b6040805173ffffffffffffffffffffffffffffffffffffffff90931683526020830191909152016101ac565b6101a2610353366004610ecb565b600660209081526000928352604080842090915290825290205481565b610184610b79565b60015460009081526006602090815260408083203384529091529020546101a2565b6101dc7f000000000000000000000000000000000000000000000000000000000000000081565b6101dc7f000000000000000000000000000000000000000000000000000000000000000081565b610184610cda565b6101a27f000000000000000000000000000000000000000000000000000000000000000081565b600054427f000000000000000000000000000000000000000000000000000000000000000090910111610476576040517f6f312cbd00000000000000000000000000000000000000000000000000000000815260040160405180910390fd5b3360009081526005602052604090206001015460ff166104c2576040517f5483a62900000000000000000000000000000000000000000000000000000000815260040160405180910390fd5b33600081815260056020526040908190205490517f9dc29fac0000000000000000000000000000000000000000000000000000000081526004810192909252602482018390529073ffffffffffffffffffffffffffffffffffffffff7f00000000000000000000000000000000000000000000000000000000000000001690639dc29fac90604401600060405180830381600087803b15801561056457600080fd5b505af1158015610578573d6000803e3d6000fd5b50506040517fa2e165cf00000000000000000000000000000000000000000000000000000000815260048101849052600092507f000000000000000000000000000000000000000000000000000000000000000073ffffffffffffffffffffffffffffffffffffffff16915063a2e165cf906024016080604051808303816000875af115801561060c573d6000803e3d6000fd5b505050506040513d601f19601f820116820180604052508101906106309190610ef7565b50505090506000600a826fffffffffffffffffffffffffffffffff1685028161065b5761065b610f8a565b600180546000908152600660208181526040808420338086529083528185208054989097048c0190970190955560045493548352908152838220948252939093529120541115905061072c57600380547fffffffffffffffffffffffff0000000000000000000000000000000000000000163390811790915560015460009081526006602090815260408083208484528252918290205460048190558251938452908301527f8d3f64db06d16862fb4811cccdefae7b014bb33c7665c3e2de2c6f728de7f818910160405180910390a15b6040518381527fd8b44a1264b74757b1da75b8ebc48f357086e626cc8c35bb067801e95478f78d9060200160405180910390a1505050565b60025473ffffffffffffffffffffffffffffffffffffffff1633146107b5576040517f82b4290000000000000000000000000000000000000000000000000000000000815260040160405180910390fd5b600280547fffffffffffffffffffffffff00000000000000000000000000000000000000001673ffffffffffffffffffffffffffffffffffffffff83169081179091556040517f957090e72c0a1b3ebf83c682eb8c1f88c2a18cd0578b91a819efb28859f0f3a390600090a250565b3360009081526007602052604090205461086a576040517f969bf72800000000000000000000000000000000000000000000000000000000815260040160405180910390fd5b33600090815260076020526040812054905b8181101561096b576040517f6a6278420000000000000000000000000000000000000000000000000000000081523360048201527f000000000000000000000000000000000000000000000000000000000000000073ffffffffffffffffffffffffffffffffffffffff1690636a62784290602401600060405180830381600087803b15801561090b57600080fd5b505af115801561091f573d6000803e3d6000fd5b505033600090815260076020526040902080547fffffffffffffffffffffffffffffffffffffffffffffffffffffffffffffffff0190555081905061096381610fb9565b91505061087c565b5050565b600054427f0000000000000000000000000000000000000000000000000000000000000000909101116109ce576040517f6f312cbd00000000000000000000000000000000000000000000000000000000815260040160405180910390fd5b3360009081526005602052604090206001015460ff1615610a1b576040517f0ae3514d00000000000000000000000000000000000000000000000000000000815260040160405180910390fd5b6040805180820182528281526001602080830182815233600081815260059093529185902093518455519290910180547fffffffffffffffffffffffffffffffffffffffffffffffffffffffffffffff00169215159290921790915590517f23b872dd00000000000000000000000000000000000000000000000000000000815260048101919091523060248201526044810182905273ffffffffffffffffffffffffffffffffffffffff7f000000000000000000000000000000000000000000000000000000000000000016906323b872dd90606401600060405180830381600087803b158015610b0c57600080fd5b505af1158015610b20573d6000803e3d6000fd5b5050600154600090815260066020908152604080832033845282528083209290925590518481527f17b303b1bb2f2645fb7458119575ef1c90cec2fe508fbc121cd18eea3b6e8df893500190505b60405180910390a150565b600054427f00000000000000000000000000000000000000000000000000000000000000009091011115610bd9576040517f1fbde44500000000000000000000000000000000000000000000000000000000815260040160405180910390fd5b60045415610c89576003805473ffffffffffffffffffffffffffffffffffffffff90811660009081526007602090815260408083208054600190810190915585549094168352600590915290819020820180547fffffffffffffffffffffffffffffffffffffffffffffffffffffffffffffff00169055905490517fbda9fd5622846df705b625590e6490d5c1b4de9b611673f3b005338678a30ee192610c809291611019565b60405180910390a15b6040805180820190915260008082526020909101819052600380547fffffffffffffffffffffffff000000000000000000000000000000000000000016905560048190556001805481019055429055565b3360009081526005602052604090206001015460ff16610d26576040517f5483a62900000000000000000000000000000000000000000000000000000000815260040160405180910390fd5b33600081815260056020526040908190205490517f23b872dd0000000000000000000000000000000000000000000000000000000081523060048201526024810192909252604482018190529073ffffffffffffffffffffffffffffffffffffffff7f000000000000000000000000000000000000000000000000000000000000000016906323b872dd90606401600060405180830381600087803b158015610dce57600080fd5b505af1158015610de2573d6000803e3d6000fd5b50506001805460009081526006602090815260408083203384528252808320839055600582528083209283559190920180547fffffffffffffffffffffffffffffffffffffffffffffffffffffffffffffff00169055518481527f46f0be3438fe7553c2039a99288a22f872b4c6b40aa3b68555548593f0db93d29350019050610b6e565b600060208284031215610e7957600080fd5b5035919050565b803573ffffffffffffffffffffffffffffffffffffffff81168114610ea457600080fd5b919050565b600060208284031215610ebb57600080fd5b610ec482610e80565b9392505050565b60008060408385031215610ede57600080fd5b82359150610eee60208401610e80565b90509250929050565b60008060008060808587031215610f0d57600080fd5b84516fffffffffffffffffffffffffffffffff81168114610f2d57600080fd5b602086015190945067ffffffffffffffff81168114610f4b57600080fd5b604086015190935066ffffffffffffff81168114610f6857600080fd5b606086015190925060ff81168114610f7f57600080fd5b939692955090935050565b7f4e487b7100000000000000000000000000000000000000000000000000000000600052601260045260246000fd5b60007fffffffffffffffffffffffffffffffffffffffffffffffffffffffffffffffff821415611012577f4e487b7100000000000000000000000000000000000000000000000000000000600052601160045260246000fd5b5060010190565b828152815473ffffffffffffffffffffffffffffffffffffffff1660208201526001820154604082015260608101610ec456fea26469706673582212204722475a5f92be79737e61553d520bb0fbf85d70d6514b31b6a8ab05ccb5190e64736f6c634300080c0033",
    "linkReferences": {}
  },
  "methodIdentifiers": {
    "FAT_TADPOLE()": "dcc31fc8",
    "FLY()": "e1a61a0c",
    "TADPOLE()": "34fd157b",
    "addFlies(uint256)": "043ad60d",
    "canClaim()": "6dc7a627",
    "claim()": "4e71d92d",
    "currentWinner()": "aabe2fe3",
    "cycle()": "6190c9d5",
    "cyclePoints(uint256,address)": "afda75b9",
    "enter(uint256)": "a59f3e0c",
    "exit()": "e9fad8ee",
    "getUserPoints()": "c4baff57",
    "historicalWinners(address)": "98abaa8d",
    "isStarted()": "544736e6",
    "owner()": "8da5cb5b",
    "period()": "ef78d4fd",
    "setOwner(address)": "13af4035",
    "start()": "be9a6555",
    "startTs()": "25677e4f",
    "tadpoleOwners(address)": "72e9dd83"
  },
  "id": 8
}