{
    "abi": [
        {
            "inputs": [
                {
                    "internalType": "string",
                    "name": "_NFT_NAME",
                    "type": "string"
                },
                {
                    "internalType": "string",
                    "name": "_NFT_SYMBOL",
                    "type": "string"
                }
            ],
            "stateMutability": "nonpayable",
            "type": "constructor"
        },
        {
            "inputs": [],
            "name": "InvalidTokenID",
            "type": "error"
        },
        {
            "inputs": [],
            "name": "Unauthorized",
            "type": "error"
        },
        {
            "anonymous": false,
            "inputs": [
                {
                    "indexed": true,
                    "internalType": "address",
                    "name": "owner",
                    "type": "address"
                },
                {
                    "indexed": true,
                    "internalType": "address",
                    "name": "spender",
                    "type": "address"
                },
                {
                    "indexed": true,
                    "internalType": "uint256",
                    "name": "id",
                    "type": "uint256"
                }
            ],
            "name": "Approval",
            "type": "event"
        },
        {
            "anonymous": false,
            "inputs": [
                {
                    "indexed": true,
                    "internalType": "address",
                    "name": "owner",
                    "type": "address"
                },
                {
                    "indexed": true,
                    "internalType": "address",
                    "name": "operator",
                    "type": "address"
                },
                {
                    "indexed": false,
                    "internalType": "bool",
                    "name": "approved",
                    "type": "bool"
                }
            ],
            "name": "ApprovalForAll",
            "type": "event"
        },
        {
            "anonymous": false,
            "inputs": [
                {
                    "indexed": true,
                    "internalType": "address",
                    "name": "newOwner",
                    "type": "address"
                }
            ],
            "name": "OwnerUpdated",
            "type": "event"
        },
        {
            "anonymous": false,
            "inputs": [
                {
                    "indexed": true,
                    "internalType": "address",
                    "name": "from",
                    "type": "address"
                },
                {
                    "indexed": true,
                    "internalType": "address",
                    "name": "to",
                    "type": "address"
                },
                {
                    "indexed": true,
                    "internalType": "uint256",
                    "name": "id",
                    "type": "uint256"
                }
            ],
            "name": "Transfer",
            "type": "event"
        },
        {
            "inputs": [
                {
                    "internalType": "uint256",
                    "name": "tokenId",
                    "type": "uint256"
                }
            ],
            "name": "_jsonString",
            "outputs": [
                {
                    "internalType": "string",
                    "name": "",
                    "type": "string"
                }
            ],
            "stateMutability": "view",
            "type": "function"
        },
        {
            "inputs": [
                {
                    "internalType": "address",
                    "name": "spender",
                    "type": "address"
                },
                {
                    "internalType": "uint256",
                    "name": "id",
                    "type": "uint256"
                }
            ],
            "name": "approve",
            "outputs": [],
            "stateMutability": "nonpayable",
            "type": "function"
        },
        {
            "inputs": [
                {
                    "internalType": "address",
                    "name": "",
                    "type": "address"
                }
            ],
            "name": "balanceOf",
            "outputs": [
                {
                    "internalType": "uint256",
                    "name": "",
                    "type": "uint256"
                }
            ],
            "stateMutability": "view",
            "type": "function"
        },
        {
            "inputs": [],
            "name": "baseURI",
            "outputs": [
                {
                    "internalType": "string",
                    "name": "",
                    "type": "string"
                }
            ],
            "stateMutability": "view",
            "type": "function"
        },
        {
            "inputs": [],
            "name": "breedingSpot",
            "outputs": [
                {
                    "internalType": "address",
                    "name": "",
                    "type": "address"
                }
            ],
            "stateMutability": "view",
            "type": "function"
        },
        {
            "inputs": [
                {
                    "internalType": "address",
                    "name": "_tadOwner",
                    "type": "address"
                },
                {
                    "internalType": "uint256",
                    "name": "_tokenId",
                    "type": "uint256"
                }
            ],
            "name": "burn",
            "outputs": [],
            "stateMutability": "nonpayable",
            "type": "function"
        },
        {
            "inputs": [],
            "name": "exchanger",
            "outputs": [
                {
                    "internalType": "address",
                    "name": "",
                    "type": "address"
                }
            ],
            "stateMutability": "view",
            "type": "function"
        },
        {
            "inputs": [
                {
                    "internalType": "uint256",
                    "name": "",
                    "type": "uint256"
                }
            ],
            "name": "getApproved",
            "outputs": [
                {
                    "internalType": "address",
                    "name": "",
                    "type": "address"
                }
            ],
            "stateMutability": "view",
            "type": "function"
        },
        {
            "inputs": [
                {
                    "internalType": "address",
                    "name": "",
                    "type": "address"
                },
                {
                    "internalType": "address",
                    "name": "",
                    "type": "address"
                }
            ],
            "name": "isApprovedForAll",
            "outputs": [
                {
                    "internalType": "bool",
                    "name": "",
                    "type": "bool"
                }
            ],
            "stateMutability": "view",
            "type": "function"
        },
        {
            "inputs": [
                {
                    "internalType": "address",
                    "name": "_receiver",
                    "type": "address"
                },
                {
                    "internalType": "uint256",
                    "name": "_seed",
                    "type": "uint256"
                }
            ],
            "name": "mint",
            "outputs": [],
            "stateMutability": "nonpayable",
            "type": "function"
        },
        {
            "inputs": [],
            "name": "name",
            "outputs": [
                {
                    "internalType": "string",
                    "name": "",
                    "type": "string"
                }
            ],
            "stateMutability": "view",
            "type": "function"
        },
        {
            "inputs": [],
            "name": "nextTokenID",
            "outputs": [
                {
                    "internalType": "uint256",
                    "name": "",
                    "type": "uint256"
                }
            ],
            "stateMutability": "view",
            "type": "function"
        },
        {
            "inputs": [],
            "name": "owner",
            "outputs": [
                {
                    "internalType": "address",
                    "name": "",
                    "type": "address"
                }
            ],
            "stateMutability": "view",
            "type": "function"
        },
        {
            "inputs": [
                {
                    "internalType": "uint256",
                    "name": "",
                    "type": "uint256"
                }
            ],
            "name": "ownerOf",
            "outputs": [
                {
                    "internalType": "address",
                    "name": "",
                    "type": "address"
                }
            ],
            "stateMutability": "view",
            "type": "function"
        },
        {
            "inputs": [
                {
                    "internalType": "address",
                    "name": "from",
                    "type": "address"
                },
                {
                    "internalType": "address",
                    "name": "to",
                    "type": "address"
                },
                {
                    "internalType": "uint256",
                    "name": "id",
                    "type": "uint256"
                }
            ],
            "name": "safeTransferFrom",
            "outputs": [],
            "stateMutability": "nonpayable",
            "type": "function"
        },
        {
            "inputs": [
                {
                    "internalType": "address",
                    "name": "from",
                    "type": "address"
                },
                {
                    "internalType": "address",
                    "name": "to",
                    "type": "address"
                },
                {
                    "internalType": "uint256",
                    "name": "id",
                    "type": "uint256"
                },
                {
                    "internalType": "bytes",
                    "name": "data",
                    "type": "bytes"
                }
            ],
            "name": "safeTransferFrom",
            "outputs": [],
            "stateMutability": "nonpayable",
            "type": "function"
        },
        {
            "inputs": [
                {
                    "internalType": "address",
                    "name": "operator",
                    "type": "address"
                },
                {
                    "internalType": "bool",
                    "name": "approved",
                    "type": "bool"
                }
            ],
            "name": "setApprovalForAll",
            "outputs": [],
            "stateMutability": "nonpayable",
            "type": "function"
        },
        {
            "inputs": [
                {
                    "internalType": "string",
                    "name": "_baseURI",
                    "type": "string"
                }
            ],
            "name": "setBaseURI",
            "outputs": [],
            "stateMutability": "nonpayable",
            "type": "function"
        },
        {
            "inputs": [
                {
                    "internalType": "address",
                    "name": "_breedingSpot",
                    "type": "address"
                }
            ],
            "name": "setBreedingSpot",
            "outputs": [],
            "stateMutability": "nonpayable",
            "type": "function"
        },
        {
            "inputs": [
                {
                    "internalType": "address",
                    "name": "_exchanger",
                    "type": "address"
                }
            ],
            "name": "setExchanger",
            "outputs": [],
            "stateMutability": "nonpayable",
            "type": "function"
        },
        {
            "inputs": [
                {
                    "internalType": "address",
                    "name": "_newOwner",
                    "type": "address"
                }
            ],
            "name": "setOwner",
            "outputs": [],
            "stateMutability": "nonpayable",
            "type": "function"
        },
        {
            "inputs": [
                {
                    "internalType": "bytes4",
                    "name": "interfaceId",
                    "type": "bytes4"
                }
            ],
            "name": "supportsInterface",
            "outputs": [
                {
                    "internalType": "bool",
                    "name": "",
                    "type": "bool"
                }
            ],
            "stateMutability": "view",
            "type": "function"
        },
        {
            "inputs": [],
            "name": "symbol",
            "outputs": [
                {
                    "internalType": "string",
                    "name": "",
                    "type": "string"
                }
            ],
            "stateMutability": "view",
            "type": "function"
        },
        {
            "inputs": [
                {
                    "internalType": "uint256",
                    "name": "",
                    "type": "uint256"
                }
            ],
            "name": "tadpoles",
            "outputs": [
                {
                    "internalType": "uint128",
                    "name": "category",
                    "type": "uint128"
                },
                {
                    "internalType": "uint64",
                    "name": "skin",
                    "type": "uint64"
                },
                {
                    "internalType": "uint56",
                    "name": "hat",
                    "type": "uint56"
                },
                {
                    "internalType": "uint8",
                    "name": "background",
                    "type": "uint8"
                }
            ],
            "stateMutability": "view",
            "type": "function"
        },
        {
            "inputs": [
                {
                    "internalType": "uint256",
                    "name": "tokenId",
                    "type": "uint256"
                }
            ],
            "name": "tokenURI",
            "outputs": [
                {
                    "internalType": "string",
                    "name": "",
                    "type": "string"
                }
            ],
            "stateMutability": "view",
            "type": "function"
        },
        {
            "inputs": [
                {
                    "internalType": "address",
                    "name": "from",
                    "type": "address"
                },
                {
                    "internalType": "address",
                    "name": "to",
                    "type": "address"
                },
                {
                    "internalType": "uint256",
                    "name": "id",
                    "type": "uint256"
                }
            ],
            "name": "transferFrom",
            "outputs": [],
            "stateMutability": "nonpayable",
            "type": "function"
        }
    ],
    "bytecode": {
        "object": "0x60806040523480156200001157600080fd5b5060405162002867380380620028678339810160408190526200003491620001f4565b8151829082906200004d90600090602085019062000081565b5080516200006390600190602084019062000081565b5050600680546001600160a01b03191633179055506200029b915050565b8280546200008f906200025e565b90600052602060002090601f016020900481019282620000b35760008555620000fe565b82601f10620000ce57805160ff1916838001178555620000fe565b82800160010185558215620000fe579182015b82811115620000fe578251825591602001919060010190620000e1565b506200010c92915062000110565b5090565b5b808211156200010c576000815560010162000111565b634e487b7160e01b600052604160045260246000fd5b600082601f8301126200014f57600080fd5b81516001600160401b03808211156200016c576200016c62000127565b604051601f8301601f19908116603f0116810190828211818310171562000197576200019762000127565b81604052838152602092508683858801011115620001b457600080fd5b600091505b83821015620001d85785820183015181830184015290820190620001b9565b83821115620001ea5760008385830101525b9695505050505050565b600080604083850312156200020857600080fd5b82516001600160401b03808211156200022057600080fd5b6200022e868387016200013d565b935060208501519150808211156200024557600080fd5b5062000254858286016200013d565b9150509250929050565b600181811c908216806200027357607f821691505b602082108114156200029557634e487b7160e01b600052602260045260246000fd5b50919050565b6125bc80620002ab6000396000f3fe608060405234801561001057600080fd5b50600436106101ae5760003560e01c80636c0360eb116100ee578063a2e165cf11610097578063da909b0911610071578063da909b09146104de578063dfef561a146104f1578063e985e9c514610504578063f101e4811461053257600080fd5b8063a2e165cf146103cc578063b88d4fde146104b8578063c87b56dd146104cb57600080fd5b806395d89b41116100c857806395d89b411461039e5780639dc29fac146103a6578063a22cb465146103b957600080fd5b80636c0360eb1461034857806370a08231146103505780638da5cb5b1461037e57600080fd5b8063191e55031161015b57806342842e0e1161013557806342842e0e146102cc5780634d12fca4146102df57806355f804b3146102ff5780636352211e1461031257600080fd5b8063191e55031461029357806323b872dd146102a657806340c10f19146102b957600080fd5b8063095ea7b31161018c578063095ea7b31461024b57806313af40351461026057806314ec46fb1461027357600080fd5b806301ffc9a7146101b357806306fdde03146101db578063081812fc146101f0575b600080fd5b6101c66101c1366004611c7e565b61053b565b60405190151581526020015b60405180910390f35b6101e3610620565b6040516101d29190611d18565b6102266101fe366004611d2b565b60046020526000908152604090205473ffffffffffffffffffffffffffffffffffffffff1681565b60405173ffffffffffffffffffffffffffffffffffffffff90911681526020016101d2565b61025e610259366004611d6d565b6106ae565b005b61025e61026e366004611d97565b6107fd565b6007546102269073ffffffffffffffffffffffffffffffffffffffff1681565b61025e6102a1366004611d97565b6108bd565b61025e6102b4366004611db2565b610955565b61025e6102c7366004611d6d565b610c1c565b61025e6102da366004611db2565b610e1c565b6008546102269073ffffffffffffffffffffffffffffffffffffffff1681565b61025e61030d366004611dee565b610f86565b610226610320366004611d2b565b60036020526000908152604090205473ffffffffffffffffffffffffffffffffffffffff1681565b6101e3610fe3565b61037061035e366004611d97565b60026020526000908152604090205481565b6040519081526020016101d2565b6006546102269073ffffffffffffffffffffffffffffffffffffffff1681565b6101e3610ff0565b61025e6103b4366004611d6d565b610ffd565b61025e6103c7366004611e60565b6110ca565b61046b6103da366004611d2b565b6009602052600090815260409020546fffffffffffffffffffffffffffffffff811690700100000000000000000000000000000000810467ffffffffffffffff16907801000000000000000000000000000000000000000000000000810466ffffffffffffff16907f0100000000000000000000000000000000000000000000000000000000000000900460ff1684565b604080516fffffffffffffffffffffffffffffffff909516855267ffffffffffffffff909316602085015266ffffffffffffff9091169183019190915260ff1660608201526080016101d2565b61025e6104c6366004611ecb565b611161565b6101e36104d9366004611d2b565b6112b8565b61025e6104ec366004611d97565b61131f565b6101e36104ff366004611d2b565b6113b7565b6101c6610512366004611fc5565b600560209081526000928352604080842090915290825290205460ff1681565b610370600a5481565b60007f01ffc9a7000000000000000000000000000000000000000000000000000000007fffffffff00000000000000000000000000000000000000000000000000000000831614806105ce57507f80ac58cd000000000000000000000000000000000000000000000000000000007fffffffff000000000000000000000000000000000000000000000000000000008316145b8061061a57507f5b5e139f000000000000000000000000000000000000000000000000000000007fffffffff000000000000000000000000000000000000000000000000000000008316145b92915050565b6000805461062d90611ff8565b80601f016020809104026020016040519081016040528092919081815260200182805461065990611ff8565b80156106a65780601f1061067b576101008083540402835291602001916106a6565b820191906000526020600020905b81548152906001019060200180831161068957829003601f168201915b505050505081565b60008181526003602052604090205473ffffffffffffffffffffffffffffffffffffffff1633811480610711575073ffffffffffffffffffffffffffffffffffffffff8116600090815260056020908152604080832033845290915290205460ff165b61077c576040517f08c379a000000000000000000000000000000000000000000000000000000000815260206004820152600e60248201527f4e4f545f415554484f52495a454400000000000000000000000000000000000060448201526064015b60405180910390fd5b60008281526004602052604080822080547fffffffffffffffffffffffff00000000000000000000000000000000000000001673ffffffffffffffffffffffffffffffffffffffff87811691821790925591518593918516917f8c5be1e5ebec7d5bd14f71427d1e84f3dd0314c0f7b2291e5b200ac8c7c3b92591a4505050565b60065473ffffffffffffffffffffffffffffffffffffffff16331461084e576040517f82b4290000000000000000000000000000000000000000000000000000000000815260040160405180910390fd5b600680547fffffffffffffffffffffffff00000000000000000000000000000000000000001673ffffffffffffffffffffffffffffffffffffffff83169081179091556040517f4ffd725fc4a22075e9ec71c59edf9c38cdeb588a91b24fc5b61388c5be41282b90600090a250565b60065473ffffffffffffffffffffffffffffffffffffffff16331461090e576040517f82b4290000000000000000000000000000000000000000000000000000000000815260040160405180910390fd5b600780547fffffffffffffffffffffffff00000000000000000000000000000000000000001673ffffffffffffffffffffffffffffffffffffffff92909216919091179055565b60008181526003602052604090205473ffffffffffffffffffffffffffffffffffffffff8481169116146109e5576040517f08c379a000000000000000000000000000000000000000000000000000000000815260206004820152600a60248201527f57524f4e475f46524f4d000000000000000000000000000000000000000000006044820152606401610773565b73ffffffffffffffffffffffffffffffffffffffff8216610a62576040517f08c379a000000000000000000000000000000000000000000000000000000000815260206004820152601160248201527f494e56414c49445f524543495049454e540000000000000000000000000000006044820152606401610773565b3373ffffffffffffffffffffffffffffffffffffffff84161480610ab6575073ffffffffffffffffffffffffffffffffffffffff8316600090815260056020908152604080832033845290915290205460ff165b80610ae4575060008181526004602052604090205473ffffffffffffffffffffffffffffffffffffffff1633145b610b4a576040517f08c379a000000000000000000000000000000000000000000000000000000000815260206004820152600e60248201527f4e4f545f415554484f52495a45440000000000000000000000000000000000006044820152606401610773565b73ffffffffffffffffffffffffffffffffffffffff808416600081815260026020908152604080832080547fffffffffffffffffffffffffffffffffffffffffffffffffffffffffffffffff019055938616808352848320805460010190558583526003825284832080547fffffffffffffffffffffffff00000000000000000000000000000000000000009081168317909155600490925284832080549092169091559251849392917fddf252ad1be2c89b69c2b068fc378daa952ba7f163c4a11628f55a4df523b3ef91a4505050565b60075473ffffffffffffffffffffffffffffffffffffffff163314610c6d576040517f82b4290000000000000000000000000000000000000000000000000000000000815260040160405180910390fd5b600a805460018101909155610c828382611504565b6000610c8d8361169d565b90506040518060800160405280826fffffffffffffffffffffffffffffffff1681526020016008600186901c81610cc657610cc6612046565b0667ffffffffffffffff168152602001610ce483600287901c61172d565b66ffffffffffffff1681526020016009600386901c60ff91900681169091526000938452600960209081526040948590208351815492850151968501516060909501519093167f0100000000000000000000000000000000000000000000000000000000000000027effffffffffffffffffffffffffffffffffffffffffffffffffffffffffffff66ffffffffffffff9095167801000000000000000000000000000000000000000000000000029490941677ffffffffffffffffffffffffffffffffffffffffffffffff67ffffffffffffffff909716700100000000000000000000000000000000027fffffffffffffffff0000000000000000000000000000000000000000000000009093166fffffffffffffffffffffffffffffffff9094169390931791909117949094161717909155505050565b610e27838383610955565b73ffffffffffffffffffffffffffffffffffffffff82163b1580610f1b57506040517f150b7a020000000000000000000000000000000000000000000000000000000080825233600483015273ffffffffffffffffffffffffffffffffffffffff858116602484015260448301849052608060648401526000608484015290919084169063150b7a029060a4016020604051808303816000875af1158015610ed3573d6000803e3d6000fd5b505050506040513d601f19601f82011682018060405250810190610ef79190612075565b7fffffffff0000000000000000000000000000000000000000000000000000000016145b610f81576040517f08c379a000000000000000000000000000000000000000000000000000000000815260206004820152601060248201527f554e534146455f524543495049454e54000000000000000000000000000000006044820152606401610773565b505050565b60065473ffffffffffffffffffffffffffffffffffffffff163314610fd7576040517f82b4290000000000000000000000000000000000000000000000000000000000815260040160405180910390fd5b610f81600b8383611b96565b600b805461062d90611ff8565b6001805461062d90611ff8565b60085473ffffffffffffffffffffffffffffffffffffffff16331461104e576040517f82b4290000000000000000000000000000000000000000000000000000000000815260040160405180910390fd5b60008181526003602052604090205473ffffffffffffffffffffffffffffffffffffffff8381169116146110ae576040517f82b4290000000000000000000000000000000000000000000000000000000000815260040160405180910390fd5b6000818152600960205260408120556110c681611791565b5050565b33600081815260056020908152604080832073ffffffffffffffffffffffffffffffffffffffff87168085529083529281902080547fffffffffffffffffffffffffffffffffffffffffffffffffffffffffffffff001686151590811790915590519081529192917f17307eab39ab6107e8899845ad3d59bd9653f200f220920489ca2b5937696c31910160405180910390a35050565b61116c848484610955565b73ffffffffffffffffffffffffffffffffffffffff83163b158061124c57506040517f150b7a02000000000000000000000000000000000000000000000000000000008082529073ffffffffffffffffffffffffffffffffffffffff85169063150b7a02906111e5903390899088908890600401612092565b6020604051808303816000875af1158015611204573d6000803e3d6000fd5b505050506040513d601f19601f820116820180604052508101906112289190612075565b7fffffffff0000000000000000000000000000000000000000000000000000000016145b6112b2576040517f08c379a000000000000000000000000000000000000000000000000000000000815260206004820152601060248201527f554e534146455f524543495049454e54000000000000000000000000000000006044820152606401610773565b50505050565b60008181526003602052604090205460609073ffffffffffffffffffffffffffffffffffffffff16611316576040517f6aa2a93700000000000000000000000000000000000000000000000000000000815260040160405180910390fd5b61061a826113b7565b60065473ffffffffffffffffffffffffffffffffffffffff163314611370576040517f82b4290000000000000000000000000000000000000000000000000000000000815260040160405180910390fd5b600880547fffffffffffffffffffffffff00000000000000000000000000000000000000001673ffffffffffffffffffffffffffffffffffffffff92909216919091179055565b600081815260096020908152604091829020825160808101845290546fffffffffffffffffffffffffffffffff81168252700100000000000000000000000000000000810467ffffffffffffffff16928201929092527801000000000000000000000000000000000000000000000000820466ffffffffffffff16928101929092527f0100000000000000000000000000000000000000000000000000000000000000900460ff1660608083019190915290611472836118db565b815161148f906fffffffffffffffffffffffffffffffff16611a15565b61149f836060015160ff166118db565b6114b5846040015166ffffffffffffff166118db565b6114cc856020015167ffffffffffffffff166118db565b600b6114d7896118db565b6040516020016114ed97969594939291906121c8565b604051602081830303815290604052915050919050565b73ffffffffffffffffffffffffffffffffffffffff8216611581576040517f08c379a000000000000000000000000000000000000000000000000000000000815260206004820152601160248201527f494e56414c49445f524543495049454e540000000000000000000000000000006044820152606401610773565b60008181526003602052604090205473ffffffffffffffffffffffffffffffffffffffff161561160d576040517f08c379a000000000000000000000000000000000000000000000000000000000815260206004820152600e60248201527f414c52454144595f4d494e5445440000000000000000000000000000000000006044820152606401610773565b73ffffffffffffffffffffffffffffffffffffffff8216600081815260026020908152604080832080546001019055848352600390915280822080547fffffffffffffffffffffffff0000000000000000000000000000000000000000168417905551839291907fddf252ad1be2c89b69c2b068fc378daa952ba7f163c4a11628f55a4df523b3ef908290a45050565b6000806116ac6103e884612498565b90506101f481106116c05750600092915050565b6101f4811080156116d2575060c88110155b156116e05750600192915050565b60c8811080156116f1575060328110155b156116ff5750600292915050565b603281108015611710575060048110155b1561171e5750600392915050565b50600492915050565b50919050565b6000826004141561174a57611743600583612498565b905061061a565b826003141561175e57611743600683612498565b826002141561177257611743600883612498565b826001141561178657611743600a83612498565b611743600f83612498565b60008181526003602052604090205473ffffffffffffffffffffffffffffffffffffffff168061181d576040517f08c379a000000000000000000000000000000000000000000000000000000000815260206004820152600a60248201527f4e4f545f4d494e544544000000000000000000000000000000000000000000006044820152606401610773565b73ffffffffffffffffffffffffffffffffffffffff8116600081815260026020908152604080832080547fffffffffffffffffffffffffffffffffffffffffffffffffffffffffffffffff0190558583526003825280832080547fffffffffffffffffffffffff000000000000000000000000000000000000000090811690915560049092528083208054909216909155518492907fddf252ad1be2c89b69c2b068fc378daa952ba7f163c4a11628f55a4df523b3ef908390a45050565b60608161191b57505060408051808201909152600181527f3000000000000000000000000000000000000000000000000000000000000000602082015290565b8160005b8115611945578061192f816124db565b915061193e9050600a83612514565b915061191f565b60008167ffffffffffffffff81111561196057611960611e9c565b6040519080825280601f01601f19166020018201604052801561198a576020820181803683370190505b5090505b8415611a0d5761199f600183612528565b91506119ac600a86612498565b6119b790603061253f565b60f81b8183815181106119cc576119cc612557565b60200101907effffffffffffffffffffffffffffffffffffffffffffffffffffffffffffff1916908160001a905350611a06600a86612514565b945061198e565b949350505050565b606081611a5557505060408051808201909152600681527f436f6d6d6f6e0000000000000000000000000000000000000000000000000000602082015290565b8160011415611a9757505060408051808201909152600481527f5261726500000000000000000000000000000000000000000000000000000000602082015290565b8160021415611ad957505060408051808201909152600b81527f457863657074696f6e616c000000000000000000000000000000000000000000602082015290565b8160031415611b1b57505060408051808201909152600481527f4570696300000000000000000000000000000000000000000000000000000000602082015290565b8160041415611b5d57505060408051808201909152600981527f4c6567656e646172790000000000000000000000000000000000000000000000602082015290565b505060408051808201909152600981527f556e646566696e65640000000000000000000000000000000000000000000000602082015290565b828054611ba290611ff8565b90600052602060002090601f016020900481019282611bc45760008555611c28565b82601f10611bfb578280017fffffffffffffffffffffffffffffffffffffffffffffffffffffffffffffff00823516178555611c28565b82800160010185558215611c28579182015b82811115611c28578235825591602001919060010190611c0d565b50611c34929150611c38565b5090565b5b80821115611c345760008155600101611c39565b7fffffffff0000000000000000000000000000000000000000000000000000000081168114611c7b57600080fd5b50565b600060208284031215611c9057600080fd5b8135611c9b81611c4d565b9392505050565b60005b83811015611cbd578181015183820152602001611ca5565b838111156112b25750506000910152565b60008151808452611ce6816020860160208601611ca2565b601f017fffffffffffffffffffffffffffffffffffffffffffffffffffffffffffffffe0169290920160200192915050565b602081526000611c9b6020830184611cce565b600060208284031215611d3d57600080fd5b5035919050565b803573ffffffffffffffffffffffffffffffffffffffff81168114611d6857600080fd5b919050565b60008060408385031215611d8057600080fd5b611d8983611d44565b946020939093013593505050565b600060208284031215611da957600080fd5b611c9b82611d44565b600080600060608486031215611dc757600080fd5b611dd084611d44565b9250611dde60208501611d44565b9150604084013590509250925092565b60008060208385031215611e0157600080fd5b823567ffffffffffffffff80821115611e1957600080fd5b818501915085601f830112611e2d57600080fd5b813581811115611e3c57600080fd5b866020828501011115611e4e57600080fd5b60209290920196919550909350505050565b60008060408385031215611e7357600080fd5b611e7c83611d44565b915060208301358015158114611e9157600080fd5b809150509250929050565b7f4e487b7100000000000000000000000000000000000000000000000000000000600052604160045260246000fd5b60008060008060808587031215611ee157600080fd5b611eea85611d44565b9350611ef860208601611d44565b925060408501359150606085013567ffffffffffffffff80821115611f1c57600080fd5b818701915087601f830112611f3057600080fd5b813581811115611f4257611f42611e9c565b604051601f82017fffffffffffffffffffffffffffffffffffffffffffffffffffffffffffffffe0908116603f01168101908382118183101715611f8857611f88611e9c565b816040528281528a6020848701011115611fa157600080fd5b82602086016020830137600060208483010152809550505050505092959194509250565b60008060408385031215611fd857600080fd5b611fe183611d44565b9150611fef60208401611d44565b90509250929050565b600181811c9082168061200c57607f821691505b60208210811415611727577f4e487b7100000000000000000000000000000000000000000000000000000000600052602260045260246000fd5b7f4e487b7100000000000000000000000000000000000000000000000000000000600052601260045260246000fd5b60006020828403121561208757600080fd5b8151611c9b81611c4d565b600073ffffffffffffffffffffffffffffffffffffffff8087168352808616602084015250836040830152608060608301526120d16080830184611cce565b9695505050505050565b600081516120ed818560208601611ca2565b9290920192915050565b8054600090600181811c908083168061211157607f831692505b602080841082141561214c577f4e487b7100000000000000000000000000000000000000000000000000000000600052602260045260246000fd5b818015612160576001811461218f576121bc565b7fffffffffffffffffffffffffffffffffffffffffffffffffffffffffffffff008616895284890196506121bc565b60008881526020902060005b868110156121b45781548b82015290850190830161219b565b505084890196505b50505050505092915050565b7f7b226e616d65223a22746164706f6c6520230000000000000000000000000000815260008851612200816012850160208d01611ca2565b7f222c20226465736372697074696f6e223a22546164706f6c65222c20226174746012918401918201527f72696275746573223a5b0000000000000000000000000000000000000000000060328201526122af6122a9603c83017f7b2274726169745f74797065223a202263617465676f7279222c202276616c7581527f65223a2022000000000000000000000000000000000000000000000000000000602082015260250190565b8a6120db565b7f227d2c0000000000000000000000000000000000000000000000000000000000815290507f7b2274726169745f74797065223a20226261636b67726f756e64222c2022766160038201527f6c7565223a200000000000000000000000000000000000000000000000000000602382015261232d60298201896120db565b7f7d2c000000000000000000000000000000000000000000000000000000000000815290507f7b2274726169745f74797065223a2022686174222c202276616c7565223a2000600282015261238560218201886120db565b7f7d2c000000000000000000000000000000000000000000000000000000000000815290507f7b2274726169745f74797065223a2022736b696e222c202276616c7565223a2060028201526123dd60228201876120db565b7f7d00000000000000000000000000000000000000000000000000000000000000815290507f5d2c00000000000000000000000000000000000000000000000000000000000060018201527f22696d616765223a220000000000000000000000000000000000000000000000600382015261246461245e600c8301876120f7565b856120db565b7f227d00000000000000000000000000000000000000000000000000000000000081526002019a9950505050505050505050565b6000826124a7576124a7612046565b500690565b7f4e487b7100000000000000000000000000000000000000000000000000000000600052601160045260246000fd5b60007fffffffffffffffffffffffffffffffffffffffffffffffffffffffffffffffff82141561250d5761250d6124ac565b5060010190565b60008261252357612523612046565b500490565b60008282101561253a5761253a6124ac565b500390565b60008219821115612552576125526124ac565b500190565b7f4e487b7100000000000000000000000000000000000000000000000000000000600052603260045260246000fdfea26469706673582212205d03e86bce77ef5976c492a6e1d660959dd1cef6b754b2887ec3c2da2cd875de64736f6c634300080c0033",
        "linkReferences": {}
    },
    "methodIdentifiers": {
        "_jsonString(uint256)": "dfef561a",
        "approve(address,uint256)": "095ea7b3",
        "balanceOf(address)": "70a08231",
        "baseURI()": "6c0360eb",
        "breedingSpot()": "14ec46fb",
        "burn(address,uint256)": "9dc29fac",
        "exchanger()": "4d12fca4",
        "getApproved(uint256)": "081812fc",
        "isApprovedForAll(address,address)": "e985e9c5",
        "mint(address,uint256)": "40c10f19",
        "name()": "06fdde03",
        "nextTokenID()": "f101e481",
        "owner()": "8da5cb5b",
        "ownerOf(uint256)": "6352211e",
        "safeTransferFrom(address,address,uint256)": "42842e0e",
        "safeTransferFrom(address,address,uint256,bytes)": "b88d4fde",
        "setApprovalForAll(address,bool)": "a22cb465",
        "setBaseURI(string)": "55f804b3",
        "setBreedingSpot(address)": "191e5503",
        "setExchanger(address)": "da909b09",
        "setOwner(address)": "13af4035",
        "supportsInterface(bytes4)": "01ffc9a7",
        "symbol()": "95d89b41",
        "tadpoles(uint256)": "a2e165cf",
        "tokenURI(uint256)": "c87b56dd",
        "transferFrom(address,address,uint256)": "23b872dd"
    },
    "id": 10
}